:020000040800F2
:1000000000000120A92400080D1200080F120008AA
:100010001112000813120008151200080000000059
:10002000000000000000000000000000171200089F
:1000300019120008000000001B1200081D12000821
:10004000F9240008F9240008F9240008F92400081C
:10005000F9240008F9240008F9240008F92400080C
:10006000F9240008F9240008F9240008F9240008FC
:10007000F9240008F9240008F9240008F9240008EC
:10008000F9240008F9240008F92400080000000001
:10009000000000000000000000000000F92400083B
:1000A000F9240008F9240008F9240008F9240008BC
:1000B000F9240008F9240008F9240008F9240008AC
:1000C000F9240008F9240008F9240008F92400089C
:1000D000F9240008F9240008F924000800000000B1
:1000E000F9240008F9240008F924000800000000A1
:1000F000000000000000000000000000F9240008DB
:1001000000000000F9240008F9240008F924000880
:1001100000000000000000000000000000000000DF
:10012000F9240008F9240008F9240008F92400083B
:10013000F92400080000000000000000000000009A
:10014000000000000000000000000000F92400088A
:10015000F9240008F9240008F9240008F92400080B
:10016000F9240008F9240008000000000000000045
:10017000000000000000000000000000000000007F
:1001800000000000F924000800000000000000004A
:04019000F924000846
:1001A00010B5054C237833B9044B13B10448AFF3B1
:1001B00000800123237010BDFC010020000000001E
:1001C000884E000808B5034B1BB103490348AFF341
:1001D000008008BD0000000000020020884E0008DA
:1001E000034613F8012B002AFBD1181A0138704777
:1001F00001F0FF01102A2BDB10F0070F08D010F8D8
:10020000013B013A8B422DD010F0070F42B3F6D1DB
:10021000F0B441EA012141EA014122F007047FF0F4
:1002200000070023F0E80256083C85EA010586EA4B
:10023000010685FA47F5A3FA87F586FA47F6A5FA87
:1002400087F68EB9EED1F0BC01F0FF0102F0070293
:1002500032B110F8013B013A83EA010313B1F8D13E
:100260000020704701387047002D06BF354603381F
:10027000073815F0010F07D1013015F4807F02BF58
:10028000013015F4C03F0130F0BC0138704700BFA9
:1002900081F0004102E000BF83F0004330B54FEA37
:1002A00041044FEA430594EA050F08BF90EA020FA4
:1002B0001FBF54EA000C55EA020C7FEA645C7FEA37
:1002C000655C00F0E2804FEA5454D4EB5555B8BF5A
:1002D0006D420CDD2C4480EA020281EA030382EACB
:1002E000000083EA010180EA020281EA0303362D5D
:1002F00088BF30BD11F0004F4FEA01314FF4801C30
:100300004CEA113102D0404261EB410113F0004F41
:100310004FEA03334CEA133302D0524263EB4303F8
:1003200094EA050F00F0A780A4F10104D5F1200E96
:100330000DDB02FA0EFC22FA05F2801841F10001F1
:1003400003FA0EF2801843FA05F359410EE0A5F1C5
:1003500020050EF1200E012A03FA0EFC28BF4CF0F6
:10036000020C43FA05F3C01851EBE37101F00045AC
:1003700007D54FF0000EDCF1000C7EEB00006EEBB9
:100380000101B1F5801F1BD3B1F5001F0CD3490843
:100390005FEA30004FEA3C0C04F101044FEA44529A
:1003A00012F5800F80F09A80BCF1004F08BF5FEA21
:1003B000500C50F1000041EB045141EA050130BD01
:1003C0005FEA4C0C404141EB0101013C28BFB1F513
:1003D000801FE9D291F0000F04BF01460020B1FA5E
:1003E00081F308BF2033A3F10B03B3F120020CDA31
:1003F0000C3208DD02F1140CC2F10C0201FA0CF00F
:1004000021FA02F10CE002F11402D8BFC2F1200C73
:1004100001FA02F120FA0CFCDCBF41EA0C01904029
:10042000E41AA2BF01EB0451294330BD6FEA040472
:100430001F3C1CDA0C340EDC04F11404C4F120025D
:1004400020FA04F001FA02F340EA030021FA04F36F
:1004500045EA030130BDC4F10C04C4F1200220FAC6
:1004600002F001FA04F340EA0300294630BD21FA04
:1004700004F0294630BD94F0000F83F4801306BFCA
:1004800081F480110134013D4EE77FEA645C18BFBE
:100490007FEA655C29D094EA050F08BF90EA020F55
:1004A00005D054EA000C04BF1946104630BD91EA4D
:1004B000030F1EBF0021002030BD5FEA545C05D150
:1004C0004000494128BF41F0004130BD14F580048F
:1004D0003CBF01F5801130BD01F0004545F0FE4103
:1004E00041F470014FF0000030BD7FEA645C1ABF38
:1004F000194610467FEA655C1CBF0B46024650EA6F
:10050000013406BF52EA033591EA030F41F400219A
:1005100030BD00BF90F0000F04BF0021704730B520
:100520004FF4806404F132044FF000054FF00001F5
:1005300050E700BF90F0000F04BF0021704730B5B6
:100540004FF4806404F1320410F0004548BF40428B
:100550004FF000013EE700BF42004FEAE2014FEAE0
:1005600031014FEA02701FBF12F07F4393F07F4FBB
:1005700081F06051704732F07F4208BF704793F0BE
:100580007F4F04BF41F40021704730B54FF46074D1
:1005900001F0004521F000411CE700BF50EA0102D4
:1005A00008BF704730B54FF000050AE050EA01027D
:1005B00008BF704730B511F0004502D5404261EBED
:1005C00041014FF4806404F132045FEA915C3FF42E
:1005D000D8AE4FF003025FEADC0C18BF03325FEACB
:1005E000DC0C18BF033202EBDC02C2F1200300FA7C
:1005F00003FC20FA02F001FA03FE40EA0E0021FAA1
:1006000002F11444BDE600BF70B54FF0FF0C4CF48E
:10061000E06C1CEA11541DBF1CEA135594EA0C0F40
:1006200095EA0C0F00F0DEF82C4481EA030621EA7B
:100630004C5123EA4C5350EA013518BF52EA0335B6
:1006400041F4801143F4801338D0A0FB02CE4FF068
:100650000005E1FB02E506F00042E0FB03E54FF098
:100660000006E1FB03569CF0000F18BF4EF0010E90
:10067000A4F1FF04B6F5007F64F5407404D25FEA8C
:100680004E0E6D4146EB060642EAC62141EA55513F
:100690004FEAC52040EA5E504FEACE2EB4F1FD0C81
:1006A00088BFBCF5E06F1ED8BEF1004F08BF5FEAFF
:1006B000500E50F1000041EB045170BD06F00046B1
:1006C00046EA010140EA020081EA0301B4EB5C045E
:1006D000C2BFD4EB0C0541EA045170BD41F4801156
:1006E0004FF0000E013C00F3AB8014F1360FDEBF7B
:1006F000002001F0004170BDC4F10004203C35DA57
:100700000C341BDC04F11404C4F1200500FA05F3D9
:1007100020FA04F001FA05F240EA020001F000427A
:1007200021F0004110EBD37021FA04F642EB0601F0
:100730005EEA430E08BF20EAD37070BDC4F10C041A
:10074000C4F1200500FA04F320FA05F001FA04F2DE
:1007500040EA020001F0004110EBD37041F10001CA
:100760005EEA430E08BF20EAD37070BDC4F12005D5
:1007700000FA05F24EEA020E20FA04F301FA05F23D
:1007800043EA020321FA04F001F0004121FA04F2E5
:1007900020EA020000EBD3705EEA430E08BF20EAB5
:1007A000D37070BD94F0000F0FD101F000464000EF
:1007B00041EB010111F4801F08BF013CF7D041EA71
:1007C000060195F0000F18BF704703F00046520075
:1007D00043EB030313F4801F08BF013DF7D043EA46
:1007E0000603704794EA0C0F0CEA135518BF95EAFC
:1007F0000C0F0CD050EA410618BF52EA4306D1D183
:1008000081EA030101F000414FF0000070BD50EAA1
:10081000410606BF1046194652EA430619D094EA2B
:100820000C0F02D150EA013613D195EA0C0F05D115
:1008300052EA03361CBF104619460AD181EA030169
:1008400001F0004141F0FE4141F470014FF0000021
:1008500070BD41F0FE4141F4780170BD70B54FF0BC
:10086000FF0C4CF4E06C1CEA11541DBF1CEA13553C
:1008700094EA0C0F95EA0C0F00F0A7F8A4EB05041E
:1008800081EA030E52EA03354FEA013100F0888015
:100890004FEA03334FF0805545EA131343EA1263DE
:1008A0004FEA022245EA111545EA10654FEA002693
:1008B0000EF000419D4208BF964244F1FD0404F54C
:1008C000407402D25B084FEA3202B61A65EB0305A8
:1008D0005B084FEA32024FF480104FF4002CB6EB65
:1008E000020E75EB030E22BFB61A754640EA0C00E5
:1008F0005B084FEA3202B6EB020E75EB030E22BF25
:10090000B61A754640EA5C005B084FEA3202B6EB65
:10091000020E75EB030E22BFB61A754640EA9C0024
:100920005B084FEA3202B6EB020E75EB030E22BFF4
:10093000B61A754640EADC0055EA060E18D04FEAB2
:10094000051545EA16754FEA06164FEAC30343EA52
:1009500052734FEAC2025FEA1C1CC0D111F4801F1F
:100960000BD141EA00014FF000004FF0004CB6E718
:1009700011F4801F04BF01430020B4F1FD0C88BFB7
:10098000BCF5E06F3FF6AFAEB5EB030C04BFB6EBC2
:10099000020C5FEA500C50F1000041EB045170BDB5
:1009A0000EF0004E4EEA113114EB5C04C2BFD4EBE2
:1009B0000C0541EA045170BD41F480114FF0000E66
:1009C000013C90E645EA060E8DE60CEA135594EAE2
:1009D0000C0F08BF95EA0C0F3FF43BAF94EA0C0FE5
:1009E0000AD150EA01347FF434AF95EA0C0F7FF45A
:1009F00025AF104619462CE795EA0C0F06D152EAAE
:100A000003353FF4FDAE1046194622E750EA410691
:100A100018BF52EA43067FF4C5AE50EA41047FF4A2
:100A20000DAF52EA43057FF4EBAE12E74FF0FF3C07
:100A300006E000BF4FF0010C02E000BF4FF0010CD8
:100A40004DF804CD4FEA410C7FEA6C5C4FEA430C51
:100A500018BF7FEA6C5C1BD001B050EA410C0CBFA0
:100A600052EA430C91EA030F02BF90EA020F002002
:100A7000704710F1000F91EA030F58BF994208BF69
:100A800090422CBFD8176FEAE37040F00100704726
:100A90004FEA410C7FEA6C5C02D150EA013C07D17D
:100AA0004FEA430C7FEA6C5CD6D152EA033CD3D0C8
:100AB0005DF8040B704700BF8446104662468C46C2
:100AC0001946634600E000BF01B5FFF7B7FF0028F5
:100AD00048BF10F1000F01BD4DF808EDFFF7F4FF1E
:100AE0000CBF012000205DF808FB00BF4DF808EDA9
:100AF000FFF7EAFF34BF012000205DF808FB00BFCC
:100B00004DF808EDFFF7E0FF94BF012000205DF8ED
:100B100008FB00BF4DF808EDFFF7CEFF94BF0120A2
:100B200000205DF808FB00BF4DF808EDFFF7C4FF9B
:100B300034BF012000205DF808FB00BF4FEA410CE4
:100B40007FEA6C5C02D150EA013C0AD14FEA430CC7
:100B50007FEA6C5C02D152EA033C02D14FF0000004
:100B600070474FF0010070474FEA410212F5001242
:100B700015D211D56FF47873B3EB625212D94FEAE4
:100B8000C12343F0004343EA505311F0004F23FACE
:100B900002F018BF404270474FF00000704750EA23
:100BA000013005D111F0004008BF6FF000407047E0
:100BB0004FF00000704700BF53B94AB9002908BF81
:100BC00000281CBF4FF0FF314FF0FF3000F06EB92E
:100BD000ADF1080C6DE904CE00F006F8DDF804E094
:100BE000DDE9022304B070472DE9F047089D044673
:100BF0008C46002B40F083808A42174647D9B2FAD0
:100C000082F242B1C2F1200024FA00F091409740F4
:100C100040EA010C94404FEA1748230CBCFBF8F65D
:100C20001FFA87FE08FB16C143EA014306FB0EF1DB
:100C3000994209D9FB1806F1FF3080F019819942D9
:100C400040F21681023E3B445B1AA4B2B3FBF8F0BB
:100C500008FB103344EA034400FB0EFEA64509D905
:100C60003C1900F1FF3380F00581A64540F2028176
:100C700002383C4440EA0640A4EB0E0400261DB1B5
:100C8000D4400023C5E900433146BDE8F08702B9EE
:100C9000FFDEB2FA82F2002A50D1CB1B4FEA174E88
:100CA0001FFA87F80126B3FBFEFC210C0EFB1C3358
:100CB00041EA034108FB0CF38B4207D979180CF188
:100CC000FF3002D28B4200F2E9808446C91AA3B2F7
:100CD000B1FBFEF00EFB101143EA014408FB00F8E3
:100CE000A04507D93C1900F1FF3302D2A04500F21C
:100CF000D9801846A4EB080440EA0C40BFE78B42B9
:100D000009D9002D00F0B1800026C5E90001304668
:100D10003146BDE8F087B3FA83F6002E4AD18B4204
:100D200002D3824200F2B880841A61EB03010120F1
:100D30008C46002DA8D0C5E9004CA5E7C2F12003E0
:100D400020FA03F6974001FA02F04FEA174ED94015
:100D50003043030CB1FBFEF61FFA87F80EFB1611A9
:100D600043EA014306FB08F1994204FA02F409D967
:100D7000FB1806F1FF3C80F08D80994240F28A809A
:100D8000023E3B445B1A81B2B3FBFEF00EFB103314
:100D900041EA034100FB08F38B4207D9791800F1BF
:100DA000FF3C73D28B4271D902383944CB1A40EAE6
:100DB000064678E7C6F1200C03FA06F422FA0CF393
:100DC0001C4320FA0CF701FA06F34FEA144E21FAFD
:100DD0000CF11F433B0CB1FBFEF91FFA84F80EFB2C
:100DE000191143EA014109FB08FA8A4502FA06F2A1
:100DF00000FA06F308D9611809F1FF3048D28A4594
:100E000046D9A9F102092144A1EB0A01BFB2B1FB05
:100E1000FEF00EFB101147EA014700FB08F8B84549
:100E200007D9E71900F1FF312ED2B8452CD9023885
:100E3000274440EA0940A7EB0807A0FB02894F4579
:100E4000C64649461AD317D05DB1B3EB0E0267EB25
:100E5000010707FA0CFCF2404CEA0202F740C5E930
:100E6000002700263146BDE8F0872E4628460BE7CE
:100E70000646E9E61846FDE64345E5D2B8EB020E24
:100E800069EB04010138DFE70846D2E760468DE7E9
:100E90008146B9E7664675E730464AE7ACF1020C91
:100EA000394413E702383C4424E700BF704700BFD1
:100EB00072B6FEE700B595B03022002108A801F017
:100EC0004FFB002303930493059306930793019329
:100ED000204A116C41F080511164126C02F0805272
:100EE0000192019A02931C4A136823F4404343F48D
:100EF00000431360136803F440430293029B0123F1
:100F000008934FF48033099302230E934FF4800229
:100F10000F9219221092902211921293042313938C
:100F200008A800F0B3FB80B90F23039302210491BA
:100F3000002305934FF480530693079303A800F012
:100F4000F1FD20B915B05DF804FBFFF7B1FFFFF725
:100F5000AFFF00BF003802400070004008B501F04C
:100F60001FF8FFF7A7FF00F03DF800F0E1F800F0F0
:100F700083F806E0134801F0EBFF4FF47A7001F0BC
:100F80003BF801F0B7F90028F4D10F4801F0E0FF79
:100F900001F050FA06E00D4801F0DAFF02E00C48DB
:100FA00001F0D6FF0B490C4801F0CCF90B4B18703F
:100FB0002028F0D04028F2D10649094801F042FF2C
:100FC000F0E700BFA04E0008B84E0008D84E000859
:100FD000004F0008240200200000002044020020EE
:100FE000E84E000830B589B00024039404940594B9
:100FF0000694079400941D4B1A6B42F080021A630A
:101000001A6B02F080020092009A01941A6B42F06F
:1010100002021A631A6B02F002020192019A029410
:101020001A6B42F001021A631B6B03F00103029377
:10103000029B0F4D22464FF4A051284600F027FF97
:101040004FF4A0530393012304930594069403A93A
:10105000284600F03DFE4FF48073039304940594FA
:1010600003A9044800F034FE09B030BD0038024046
:10107000000402400000024008B50E480E4B036019
:101080004FF48273436000238360C3600361436154
:101090004FF4007282611822C2610362436283626C
:1010A0000A23C36200F076F900B908BDFFF700FF1C
:1010B000FBE700BF480200200038004000B589B0BF
:1010C0000023039304930593069307930268164B3A
:1010D0009A4202D009B05DF804FB0022019203F5A8
:1010E0000033196C41F480411964196C01F480419A
:1010F000019101990292196B41F0020119631B6B76
:1011000003F002030293029B4FF460430393022314
:1011100004930592032306930523079303A9034829
:1011200000F0D6FDD6E700BF0038004000040240C2
:1011300008B50A480A4B03604FF416534360002376
:101140008360C36003610C2242618361C36100F06C
:10115000F5FF00B908BDFFF7ABFEFBE7A0020020DA
:101160000010014000B589B0002303930493059358
:1011700006930793026803F1804303F588339A428C
:1011800002D009B05DF804FB0022019203F594330C
:10119000596C41F010015964596C01F01001019132
:1011A00001990292196B41F0010119631B6B03F065
:1011B00001030293029B4FF4C06303930223049341
:1011C0000592032306930723079303A9014800F020
:1011D0007FFDD6E700000240044B1B6813F0400F70
:1011E000FAD0C2B2014B5A60704700BF00100140F4
:1011F00070B50C4616460025B54205DA14F8010B09
:10120000FFF7EAFF0135F7E7304670BDFEE7FEE77E
:10121000FEE7FEE7FEE770477047704708B500F04D
:10122000D9FE08BD82B0002100910B4B5A6C42F4EC
:1012300080425A645A6C02F480420092009A0191F2
:101240001A6C42F080521A641B6C03F080530193B5
:10125000019B02B0704700BF003802402DE9F04703
:1012600082B00546884617461E4600F0BFFE0A9B20
:101270001B1A03EB060900F0B9FE82462A4B1B68D5
:10128000C3F3CB3309FB03F301932B689C6838EA63
:1012900004030CBF01240024BC4240D0B6F1FF3F40
:1012A000F3D000F0A3FEA0EB0A0048450AD2B9F142
:1012B000000F07D0019A02B14A46019B013B0193FE
:1012C0009146E2E72A68536823F0E00353606B68B5
:1012D000B3F5827F0BD0AB6AB3F5005F14D0012366
:1012E00085F85130002385F85030032018E0AB68B2
:1012F000B3F5004F02D0B3F5806FECD12A681368C4
:1013000023F040031360E6E72A68136823F40053D0
:1013100013602A68136843F400531360DFE700206A
:1013200002B0BDE8F08700BF2800002030B585B0CE
:101330000446164B1868164BA3FB0030400D4FF4C3
:101340007A7505FB00F003906368B3F5827F0BD0DC
:10135000039BBBB1039B013B039323689B6813F082
:10136000800FF5D100200EE000920B460022802174
:101370002046FFF773FF30B1636D43F020036365D0
:10138000032000E0002005B030BD00BF2800002091
:10139000819F5E1600285AD010B50446436A33B9BF
:1013A0004368B3F5827F05D00023C36102E00023C8
:1013B000036143610023A36294F85130002B40D0B5
:1013C000022384F851302268136823F0400313602D
:1013D000636803F48273A26802F404421343E26870
:1013E00002F400621343226902F0020213436269AD
:1013F00002F001021343A26902F400721343E2698E
:1014000002F038021343226A02F080021343A26AF8
:1014100002F40052216813430B60638B03F0040352
:10142000626A02F01002216813434B602268D3699C
:1014300023F40063D36100206065012384F85130F8
:1014400010BD84F850302046FFF738FEB8E7012081
:1014500070472DE9F04383B01F460A9D90F8503045
:10146000012B00F01081044688469146012380F844
:10147000503000F0BBFD064694F85130DBB2626894
:10148000012B0AD0B2F5827F40F0E380A268002AE7
:1014900040F0E980042B40F0E880B8F1000F00F044
:1014A000E680B9F1000F00F0E480002F00F0E38047
:1014B00094F85130DBB2042B02D0052384F851306C
:1014C00000236365C4F83890E787A787C4F83080A5
:1014D000E786A7862364636423681A6812F0400FC6
:1014E00003D11A6842F040021A60E368B3F5006F56
:1014F00011D063680BB1012F0BD1226B23681278D6
:101500001A73236B01332363E38E9BB2013B9BB2BF
:10151000E38601276BE063680BB1012F0BD1226BCF
:1015200023681288DA60236B02332363E38E9BB255
:10153000013B9BB2E38601271CE023689A6812F006
:10154000010F0ED0E28F92B25AB1DA68A36B1A8003
:10155000A36B0233A363E38F9BB2013B9BB2E38790
:10156000012700F043FD801BA84203D3B5F1FF3FE4
:1015700040F08380E38E9BB21BB9E38F9BB2002BBC
:1015800053D023689A6812F0020FD6D0E28E92B23E
:10159000002AD2D0002FD0D0226B1288DA60236BC1
:1015A00002332363E38E9BB2013B9BB2E3860027A9
:1015B000C3E723689A6812F0010F0ED0E28F92B24F
:1015C0005AB1DA68A36B1A70A36B0133A363E38F7C
:1015D0009BB2013B9BB2E387012700F007FD831B11
:1015E000AB4202D3B5F1FF3F49D1002D49D0E38E84
:1015F0009BB213B9E38F9BB2BBB123689A6812F018
:10160000020FD6D0E28E92B2002AD2D0002FD0D0D4
:10161000226B12781A73236B01332363E38E9BB220
:10162000013B9BB2E3860027C3E7324629462046AA
:10163000FFF77CFE48B9A36863B901932368DA68B1
:1016400001929B680193019B04E0202363650120C4
:1016500000E00220012384F85130002384F8503048
:1016600003B0BDE8F0830220F4E70220F2E7012096
:10167000F0E70120EEE70120ECE70320EAE7032092
:10168000E8E70320E6E70220EAE70000002800F090
:10169000DF8170B582B00446036813F0010F3BD0C0
:1016A000A64B9B6803F00C03042B2CD0A34B9B6828
:1016B00003F00C03082B21D06368B3F5803F4FD0B3
:1016C000B3F5A02F52D09D4B1A6822F480321A60D5
:1016D0001A6822F480221A606368002B50D000F050
:1016E00085FC0546954B1B6813F4003F14D100F0B0
:1016F0007DFC401B6428F5D90320B0E18F4B5B686B
:1017000013F4800FD8D08D4B1B6813F4003F03D027
:101710006368002B00F09E81236813F0020F54D001
:10172000864B9B6813F00C0F3ED0844B9B6803F0F4
:101730000C03082B33D0E368002B67D0804B0122C9
:101740001A6000F053FC05467C4B1B6813F0020F37
:1017500053D100F04BFC401B0228F5D903207EE159
:10176000764A136843F480331360B5E7734B1A6805
:1017700042F480221A601A6842F480321A60ABE7A1
:1017800000F034FC05466D4B1B6813F4003FC3D0DA
:1017900000F02CFC401B6428F5D903205FE1674B67
:1017A0005B6813F4800FC6D1644B1B6813F0020F03
:1017B00003D0E368012B40F04F81604A136823F0A7
:1017C000F803216943EAC1031360236813F0080F8B
:1017D00040D0636963B35B4B01221A6000F006FCE2
:1017E0000546564B5B6F13F0020F33D100F0FEFB42
:1017F000401B0228F5D9032031E1504A136823F039
:10180000F803216943EAC1031360DEE74C4B002271
:101810001A6000F0EBFB0546484B1B6813F0020F03
:10182000D3D000F0E3FB401B0228F5D9032016E1DA
:10183000444B00221A6000F0D9FB05463F4B5B6F1A
:1018400013F0020F06D000F0D1FB401B0228F5D99F
:10185000032004E1236813F0040F78D0374B1B6C8E
:1018600013F0805F0DD100230193344B1A6C42F0CA
:1018700080521A641B6C03F080530193019B012575
:1018800000E00025304B1B6813F4807F21D0A36853
:10189000012B32D0052B36D0284B1A6F22F00102D3
:1018A0001A671A6F22F004021A67A368002B34D05B
:1018B00000F09CFB0646214B1B6F13F0020F45D135
:1018C00000F094FB801B41F288339842F3D9032047
:1018D000C5E01D4A136843F48073136000F086FB73
:1018E0000646194B1B6813F4807FD0D100F07EFBB5
:1018F000801B0228F5D90320B1E0104A136F43F092
:1019000001031367D1E70D4B1A6F42F004021A6707
:101910001A6F42F001021A67C7E700F067FB06463C
:10192000064B1B6F13F0020F10D000F05FFB801B03
:1019300041F288339842F3D9032090E00038024006
:1019400000004742800E474200700040EDB9A36995
:10195000002B00F08380494A926802F00C02082AAA
:1019600051D0022B17D0464B00221A6000F03EFBEC
:101970000446424B1B6813F0007F42D000F036FB58
:10198000001B0228F5D9032069E03C4A136C23F0C0
:1019900080531364DBE73A4B00221A6000F026FB09
:1019A0000546364B1B6813F0007F06D000F01EFB87
:1019B000401B0228F5D9032051E0E369226A134352
:1019C000626A43EA8213A26A5208013A43EA024376
:1019D000E26A43EA0263294A5360294B01221A60F2
:1019E00000F004FB0446254B1B6813F0007F06D172
:1019F00000F0FCFA001B0228F5D903202FE000209C
:101A00002DE000202BE0012B2BD01C4B5B6803F456
:101A10008001E269914226D103F03F02216A8A42A5
:101A200023D1616A47F6C0721A40B2EB811F1ED102
:101A300003F44031A26A5208013AB1EB024F18D1C7
:101A400003F07063E26AB3EB026F14D1002006E08A
:101A500001207047012002E0012000E0002002B0D8
:101A600070BD0120FBE70120F9E70120F7E7012025
:101A7000F5E70120F3E70120F1E700BF003802405D
:101A800060004742F8B5244B9B6803F00C03042B1D
:101A90003DD0082B3DD1204B5A6802F03F025B68D5
:101AA00013F4800F12D01C4B5968C1F38811002326
:101AB0001A48A1FB0001FFF77FF8174B5B68C3F3DF
:101AC000014301335B00B0FBF3F023E0124B5B6892
:101AD000C3F388135C010025E41A65F10005AE012B
:101AE00046EA9466A701381B66EB0501CC0044EA80
:101AF0005074C500E81844F100018B0243EA90538A
:101B00008402204619460023FFF756F8D5E703481C
:101B100000E00348F8BD00BF0038024040787D0176
:101B20000024F400002800F09B8070B50D460446A8
:101B30004F4B1B6803F007038B4208D2CBB24C4AD1
:101B40001370136803F007038B4240F08B80236807
:101B500013F0020F17D013F0040F04D0454A936816
:101B600043F4E0539360236813F0080F04D0414A14
:101B7000936843F4604393603E4A936823F0F00314
:101B8000A1680B439360236813F0010F32D06368A0
:101B9000012B21D09A1E012A25D9364A126812F04B
:101BA000020F61D033498A6822F0030213438B602D
:101BB00000F01CFA06462F4B9B6803F00C0362688A
:101BC000B3EB820F16D000F011FA801B41F288337C
:101BD0009842F0D9032042E0264A126812F4003FEE
:101BE000E0D101203BE0234A126812F0007FD9D1F6
:101BF000012034E01E4B1B6803F00703AB4207D9FA
:101C0000EAB21B4B1A701B6803F00703AB422DD1DD
:101C1000236813F0040F06D0164A936823F4E053A8
:101C2000E1680B439360236813F0080F07D0114A53
:101C3000936823F46043216943EAC1039360FFF78B
:101C400021FF0C4B9B68C3F303130B4AD35CD840B2
:101C50000A4B18600A4B186800F07CF9002070BD30
:101C6000012070470120FAE70120F8E70120F6E79C
:101C7000003C0240003802400C4F000828000020C1
:101C800024000020014B1868704700BF2800002086
:101C900008B5FFF7F7FF044B9B68C3F38223034AA1
:101CA000D35CD84008BD00BF003802401C4F00087C
:101CB00008B5FFF7E7FF044B9B68C3F34233034AC1
:101CC000D35CD84008BD00BF003802401C4F00085C
:101CD00000230F2B00F2CB80F0B482B05DE0866869
:101CE0005F000324BC4026EA0406CC68BC403443B1
:101CF0008460466826EA02064C68C4F300129A40E3
:101D00003243426057E0DC08083450F8247003F096
:101D1000070296000F22B24027EA02070A69B24082
:101D20003A4340F824205AE0042200E00022B24066
:101D30003A4302344E4E46F824204E4A1468EA4391
:101D400024EA05064F6817F4803F01D045EA0406EF
:101D5000484C2660646802EA04064F6817F4003FA6
:101D600001D045EA0406434C6660A46802EA040612
:101D70004F6817F4801F01D045EA04063D4CA66069
:101D8000E46822404E6816F4001F01D045EA0402C0
:101D9000384CE26001330F2B66D801229A400C6860
:101DA00004EA020532EA0404F4D14C6804F00304A6
:101DB000013C012C93D94A6802F00302032A09D09E
:101DC000C4685E000322B24024EA02048A68B2407A
:101DD0002243C2604A6802F00302022A93D00468D8
:101DE0005E000322B24024EA02044A6802F00302C1
:101DF000B240224302604A6812F0805FCAD00022DB
:101E000001921D4A546C44F480445464526C02F4B0
:101E100080420192019A9C08A61C154A52F826702D
:101E200003F0030296000F22B24027EA0207134A8A
:101E300090423FF47BAF02F5806290420ED002F5F3
:101E4000806290420CD002F5806290420AD002F586
:101E5000806290423FF468AF072268E7012266E79C
:101E6000022264E7032262E702B0F0BC70477047C9
:101E700000380140003C01400038024000000240B0
:101E80000369194201D001207047002070470AB150
:101E9000816170470904816170470000074AD36877
:101EA00023F4E0631B041B0C000200F4E060034316
:101EB00043F0BF6343F40033D360704700ED00E0AC
:101EC00030B4174BDB68C3F30223C3F10704042CBF
:101ED00028BF04241D1D062D18D9033B4FF0FF35E4
:101EE00005FA04F421EA0401994005FA03F322EA11
:101EF0000303194300280BDB0901C9B200F160405C
:101F000000F5614080F8001330BC70470023E5E71E
:101F100000F00F000901C9B2024B1954F4E700BFE9
:101F200000ED00E014ED00E00138B0F1807F0AD24E
:101F3000064B5860064AF02182F823100020986072
:101F400007221A6070470120704700BF10E000E0D0
:101F500000ED00E010B504460E4B18784FF47A738C
:101F6000B3FBF0F30C4A1068B0FBF3F0FFF7DCFFB3
:101F700068B90F2C01D901200AE0002221464FF058
:101F8000FF30FFF79DFF054B1C60002000E00120A3
:101F900010BD00BF200000202800002024000020E9
:101FA00008B50B4B1A6842F400721A601A6842F4C2
:101FB00080621A601A6842F480721A600320FFF788
:101FC0006DFF0020FFF7C6FFFFF72CF9002008BDCA
:101FD000003C0240034A1168034B1B780B4413601A
:101FE000704700BFE402002020000020014B186869
:101FF000704700BFE402002038B50446FFF7F6FF43
:102000000546B4F1FF3F02D0044B1B781C44FFF798
:10201000EDFF401BA042FAD338BD00BF20000020D6
:1020200070B504460268136923F44053C1680B433A
:10203000136183680269134342691343C2691A43F7
:102040000168CB6823F4164323F00C031343CB60E1
:102050000268536923F4407381690B435361036839
:10206000344A934206D002F58062934202D0FFF7D1
:102070000FFE01E0FFF71CFEE369B3F5004F2AD025
:102080000026051846EB06012D1846EB0101CB0092
:1020900043EA5573EA001546194663689A009B0F98
:1020A000281846EB0101FEF787FD234DA5FB003202
:1020B0005109642303FB11031B013233A5FB0323E6
:1020C0005B0903F0F00202EB011203F00F03216839
:1020D00013448B6070BD0026051846EB06012D18D1
:1020E00046EB0101CB0043EA5573EA001546194659
:1020F00062683346921846EB0303281846EB010149
:10210000FEF75AFD0C4DA5FB00325109642303FB79
:102110001103DB003233A5FB03235B095A0002F4F1
:10212000F87202EB011203F00703216813448B607D
:10213000D0E700BF001001401F85EB5158B310B528
:10214000044690F83D300BB3242384F83D302268D8
:10215000D36823F40053D3602046FFF761FF226861
:10216000136923F4904313612268536923F02A030F
:1021700053612268D36843F40053D3600020206485
:10218000202384F83D3084F83E3010BD80F83C3088
:10219000FEF7E8FFD8E7012070470000034AD2F8B5
:1021A000883043F47003C2F88830704700ED00E0D7
:1021B00000B585B08DF80E10FF23009301230DF1BB
:1021C0000F020DF10E01FFF744F910B1FF238DF856
:1021D0000F309DF80F0005B05DF804FBF8B504461C
:1021E0000D460C4E00224FF480513046FFF74FFE53
:1021F000094F21463846FFF7DBFF0446294638469B
:10220000FFF7D6FF01224FF480513046FFF73FFE23
:102210002046F8BD000402404802002070B5044684
:102220000C4D00224FF480512846FFF730FE0A4E35
:1022300021463046FFF7BCFFFF213046FFF7B8FFCD
:10224000044601224FF480512846FFF720FE204625
:1022500070BD00BF0004024048020020F8B50446EB
:102260000E46154600224FF480510D48FFF70FFE31
:1022700021460C48FFF79CFF07460024AC4207D2DA
:10228000FF210848FFF794FF30550134E4B2F5E729
:1022900001224FF480510248FFF7F9FD3846F8BD9E
:1022A0000004024048020020F8B505460C461646D8
:1022B00000224FF480510D48FFF7E9FD29460C48F4
:1022C000FFF776FF07460025B54207D214F8011B39
:1022D0000748FFF76DFF0135EDB2F5E701224FF436
:1022E00080510248FFF7D3FD3846F8BD0004024094
:1022F0004802002000B583B0114B93E80300009022
:102300008DF80410052269463020FFF7CDFF052225
:1023100069461020FFF7A2FF0023042B08D802AA69
:102320001A4412F8082CA52A02D10133DBB2F4E7D3
:10233000052B03D1002003B05DF804FB0120FAE770
:10234000244F000870B504460E46334D00224FF46A
:1023500080612846FFF79BFD20222146A020FFF741
:10236000A3FF01224FF480612846FFF790FD4FF450
:1023700080712A48FFF784FD0028F8D10720FFF775
:102380004DFF044601462720FFF728FF14F0100FE9
:102390000AD114F0200F10D114F0400F25D120489D
:1023A00000F0D6FDFF2070BDFF21E120FFF716FFF2
:1023B0001C4800F0CDFD1020F5E76020FFF72EFF50
:1023C00020280DD8024631466120FFF747FF3178BB
:1023D000154800F037FD154800F0BAFD2020E2E76F
:1023E000FF21E220FFF7FAFEF1E7114800F0B0FD0F
:1023F0006020FFF713FF202809D8024631466120EC
:10240000FFF72CFF0A4800F0A3FD4020CBE7FF2197
:10241000E220FFF7E3FEF5E700040240000002407F
:10242000744F00082C4F0008404F0008544F00081C
:10243000644F000810B5194C00224FF4806120460B
:10244000FFF725FD052216493020FFF72DFF052255
:1024500014492A20FFF728FF01212120FFF7BEFEA3
:1024600001212220FFF7BAFEFF212420FFF7B6FE4C
:1024700028212520FFF7B2FE0F212620FFF7AEFE10
:102480000E212020FFF7AAFE01224FF48061204692
:10249000FFF7FDFC0120FFF7AFFD10BD0004024077
:1024A000A04F0008984F0008DFF834D00D480E49BF
:1024B0000E4A002302E0D458C4500433C4188C429E
:1024C000F9D30B4A0B4C002301E013600432A24203
:1024D000FBD3FFF763FE00F011F8FEF73FFD7047F6
:1024E0000000012000000020FC01002078520008BC
:1024F000FC010020F8020020FEE7000070B50D4D41
:102500000D4C641BA4100026A64209D10B4D0C4CA7
:1025100002F0BAFC641BA4100026A64205D170BDCF
:1025200055F8043B98470136EEE755F8043B9847C9
:102530000136F2E77052000870520008705200082D
:10254000745200080A44914200F1FF3300D17047F1
:1025500010B511F8014B03F8014F9142F9D110BDAC
:1025600002440346934200D1704703F8011BF9E788
:102570002DE9FF4755EC104B002D0E4619462B4612
:10258000BBBF05F100431D4600232D230B700D9B9F
:10259000DDF830A0914623F02008BCBF2246144647
:1025A000B8F1460F05D0B8F1450F00D10136022130
:1025B00000E0032103AB019302AB009345EC104B09
:1025C0005346324600F018FEB8F1470F074602D1D5
:1025D00019F0010F22D0B8F1460F07EB060910D110
:1025E0003B78302B0AD10022002320462946FEF7F3
:1025F00073FA18B9C6F10106CAF80060DAF80030BB
:1026000099440022002320462946FEF765FA08B1C6
:10261000CDF80C903022039B4B4507D3039B0E9AB9
:10262000DB1B3846136004B0BDE8F087591C0391EA
:102630001A70F0E7F7B503460029B8BF494203F81E
:10264000022BB4BF2D222B22092942702ADD0DF165
:102650000704A4460A27A6460A4691FBF7F607FB9D
:1026600016153035632A04F1FF340EF8015C31464B
:10267000F1DC3031AEF1020504F8011C441C29469E
:1026800061450AD30DF10902A2EB0E02654588BF30
:1026900000221344181A03B0F0BD11F8012B04F8FE
:1026A000012FEDE7302330318370C170031DF1E756
:1026B0002DE9F04F2DED028B8DB00C46DDF86080DA
:1026C00016461F46054601F02DFDD0F800A05046E5
:1026D000FDF786FD00230A9323680593D8F80030A0
:1026E00094F818B0073323F0070303F10802C8F881
:1026F0000020D3E90023C4E91223D4E9128929F088
:1027000000430793CDF8188008EE100A9F4BDDE9CF
:1027100006014FF0FF32FEF711FA88BBDDE9060132
:102720009A4B4FF0FF32FEF7EBF948BB0022002333
:1027300040464946FEF7DAF910B12D2384F84330BC
:10274000934B9448BBF1470F94BF984680460323B0
:102750002361059B23F0040222604FF000090097DB
:1027600033460BAA2146284600F0D8F9013040F044
:1027700090804FF0FF300DB0BDEC028BBDE8F08FC4
:1027800042464B4640464946FEF7D8F940B14B46D3
:10279000002BBCBF2D2384F843307F487F4BD1E70B
:1027A00063680BF0DF0206925A1C3FD10623636078
:1027B000059B616843F48062002303930AABCDE973
:1027C00001B309AB49EC108B009322600DF1230398
:1027D0002846FFF7CDFE069B0999472B804608D176
:1027E000C81C02DB6368994241DDABF1020B5FFA62
:1027F0008BFBBBF1650F20D801395A4604F150001C
:102800000991FFF717FF0A9A1318012A81462361DD
:1028100002DC2268D20701D5013323619DF8233001
:10282000002B9CD02D2384F8433098E7069A472A42
:10283000BED1002BBCD10123B9E7BBF1660F18D183
:10284000002963680BDD216113B92268D00702D526
:1028500001330B442361A1654FF00009DEE713B992
:102860002268D20701D50233F4E70123F2E74FF0E3
:10287000670B0A9B994205DB23682161D807EAD5DB
:102880004B1CE7E70029D4BFC1F102020122134427
:10289000E0E723685A0507D42369424631462846B3
:1028A000B84701302CD164E7BBF1650F40F2E080FE
:1028B000D4E9120100220023FEF70EF9002834D0DB
:1028C000374A012331462846B84701303FF451AF1B
:1028D000DDE909239A4202DB2368D80710D518EEF8
:1028E000103A524631462846B84701303FF441AFCE
:1028F0004FF0000804F11A090A9B013B434509DC2B
:1029000023689B0700F10581E0680B9B9842B8BFE4
:10291000184630E701234A4631462846B847013079
:102920003FF427AF08F10108E6E7099B002B39DCEB
:102930001B4A012331462846B84701303FF419AFFE
:10294000DDE90923134302D12368D907D8D518EE4E
:10295000103A524631462846B84701303FF409AF95
:102960004FF0000904F11A0A099B5B424B4501DC58
:102970000A9B92E70123524631462846B847013068
:102980003FF4F7AE09F10109EEE700BFFFFFEF7F6B
:10299000AC4F0008B04F0008B84F0008B44F000813
:1029A000BC4F00080A9AA36D9A42A8BF1A46002A93
:1029B000914637DC4FF0000B29EAE97904F11A025D
:1029C000A36D0593A3EB09035B4533DCDDE9092324
:1029D0009A423BDB2368DA0738D40A9A059B0999A7
:1029E000D31AA2EB01099945A8BF9946B9F1000F86
:1029F00035DC4FF0000829EAE97904F11A0ADDE92B
:102A000009239B1AA3EB090343457FF779AF012301
:102A1000524631462846B84701303FF4AAAE08F185
:102A20000108ECE71346314642462846B8470130D4
:102A3000C0D19EE60123314628460592B8470130B1
:102A40003FF497AE059A0BF1010BB9E718EE103A77
:102A5000524631462846B8470130BED189E6059A2C
:102A60004B46424431462846B8470130C1D180E642
:102A70000A9A012A01DCDB0738D501234246314698
:102A80002846B84701303FF474AE18EE103A52466B
:102A900031462846B84701303FF46BAED4E9120105
:102AA00000220023FEF718F8D8B90A9B08F10102AA
:102AB000013B31462846B84701300ED159E6012383
:102AC000524631462846B84701303FF452AE08F12D
:102AD00001080A9B013B4345F1DC4B4604F15002DF
:102AE000DCE64FF0000804F11A0AF2E7012342463F
:102AF000DFE701234A4631462846B84701303FF414
:102B000038AE08F10108E3680B995B1A4345F0DC25
:102B1000FAE64FF0000804F11909F4E72DE9F0474F
:102B2000164699468A680B69DDF820809342B8BF43
:102B30001346336091F8432007460C460AB101332F
:102B400033602368990642BF3368023333602568D7
:102B500015F0060506D104F1190AE36832689B1ADC
:102B6000AB4226DC94F84320131E226818BF0123D1
:102B700092062BD404F1430249463846C04701303F
:102B80001ED02368E568326803F00603042B08BFF3
:102B9000AD1AA36822690CBF25EAE57500259342AA
:102BA000C4BF9B1AED1800261A34B5421AD1002072
:102BB00008E00123524649463846C047013003D158
:102BC0004FF0FF30BDE8F0870135C6E7E1185A1C29
:102BD000302081F84300224494F8451082F84310D5
:102BE0000233C7E70123224649463846C047013031
:102BF000E6D00136D9E700002DE9FF470C469146A3
:102C0000277E0C99782F80469A4604F1430207D814
:102C1000622F0AD8002F00F0D880582F00F0A38030
:102C200004F1420684F842703AE0A7F16303152BE1
:102C3000F6D801A050F823F0912C0008A52C00082C
:102C4000212C0008212C0008212C0008212C000830
:102C5000A52C0008212C0008212C0008212C00089C
:102C6000212C0008B12D0008D52C0008932D000858
:102C7000212C0008212C0008D32D0008212C00084D
:102C8000D52C0008212C0008212C00089B2D0008C1
:102C90000B681A1D1B680A6004F1420684F8423072
:102CA0000123A3E0256808682E0600F104030AD575
:102CB00005680B60002D03DA2D236D4284F8433044
:102CC0005E480A2319E015F0400F05680B6018BF35
:102CD0002DB2EFE70B682568181D0860280601D59E
:102CE0001D6802E06906FBD51D8854486F2F0CBF94
:102CF00008230A23002184F843106668A660002E8A
:102D0000A2BF216821F0040121600DB9002E4DD031
:102D10001646B5FBF3F103FB1157C75D06F8017DBD
:102D20002F46BB420D46F4D9082B0BD12368DF0791
:102D300008D5236961689942DEBF302306F8013C5B
:102D400006F1FF36921B2261CDF800A04B4603AA84
:102D500021464046FFF7E2FE01304CD14FF0FF30F4
:102D600004B0BDE8F087354884F8457023680E68E4
:102D70001F0656F8045B0E6014D5D90744BF43F014
:102D8000200323601DB9236823F020032360102350
:102D9000B0E7236843F0200323607823284884F8B1
:102DA0004530E3E75E0648BFADB2E6E71646BBE74F
:102DB0000B68266860691D1D0D6035061B6801D50E
:102DC000186002E07106FBD51880002323611646C7
:102DD000BAE70B681A1D0A601E6862680021304657
:102DE000FDF706FA08B1801B606063682361002369
:102DF00084F84330A8E72369324649464046D04725
:102E00000130ABD023689B0713D4E068039B984242
:102E1000B8BF1846A4E70123324649464046D0478A
:102E200001309BD00135E36803995B1AAB42F2DCB9
:102E3000EBE7002504F11906F5E700BFBE4F0008D7
:102E4000CF4F00080FB40A4B13B51C6824B1A36917
:102E500013B9204601F0C8F805AB049AA1680193A4
:102E6000204601F0C3FD02B0BDE8104004B0704739
:102E70002C00002070B50E46054618B183690BB9C9
:102E800001F0B2F8AB69AC6813B9284601F0ACF8B0
:102E90002C4B9C4220D16C68636EDB0705D4A38960
:102EA000980502D4A06D01F042F9A38919071DD538
:102EB0002369DBB1013EA36816F8011F013BA36043
:102EC00039BB002B38DA22460A21284600F048F8A0
:102ED000013011D00A2511E01B4B9C4201D1AC6896
:102EE000DAE71A4B9C4208BFEC68D5E72146284632
:102EF00000F088F80028DDD04FF0FF35636EDA0768
:102F000005D4A3899B0502D4A06D01F011F92846D0
:102F100070BD002B04DAA2699A4206DC0A2904D0AB
:102F200023685A1C22601970C5E72246284600F023
:102F300017F80130BFD1DFE723680A255A1C226049
:102F40001D70DBE71050000830500008F04F0008FB
:102F5000024B01461868FFF78DBF00BF2C00002010
:102F6000F8B50E461446054618B183690BB901F051
:102F70003BF8214B9C422BD16C68A369A360A389C9
:102F80001A072FD523696BB323692068C01A6369B8
:102F9000F6B28342374604DC2146284600F090FF13
:102FA00030BBA368013BA36023685A1C22601E70DB
:102FB00063690130834204D0A389DB0706D50A2E5A
:102FC00004D12146284600F07BFF88B93846F8BD79
:102FD0000A4B9C4201D1AC68CFE7094B9C4208BF29
:102FE000EC68CAE72146284600F00CF80028CBD050
:102FF0004FF0FF37EAE700BF1050000830500008DC
:10300000F04F0008324B70B51D6806460C4625B1DE
:10301000AB6913B9284600F0E7FF2E4B9C420FD155
:103020006C68A389B4F90C2019072CD4DD0611D4DF
:103030000923336042F04003A3814FF0FF303EE0AC
:10304000254B9C4201D1AC68EBE7244B9C4208BF66
:10305000EC68E6E7580712D5616B41B104F144030F
:10306000994202D0304601F0EDFB00236363A3894F
:1030700023F02403A3810023636023692360A389D1
:1030800043F00803A38123694BB9A38903F4207398
:10309000B3F5007F03D02146304601F06FF8A089D8
:1030A000B4F90C2010F001030AD00023A360636977
:1030B0005B42A361236943B910F08000BAD170BDAF
:1030C000810758BF6369A360F4E70020F7E700BFFA
:1030D0002C0000201050000830500008F04F00086D
:1030E0002DE9F74F03690C69A3420746C0F28180BE
:1030F000013C01F1140800F1140505EB8403019370
:1031000058F8243055F8242001339A424FEA840BB2
:1031100008EB8409B2FBF3F631D34FF0000E4046C2
:10312000AC46F24650F8042B93B206FB03E34FEA99
:10313000134E9BB2AAEB0303120CDCF800A006FBB3
:1031400002E213FA8AF34FEA124E1FFA82FADCF80F
:103150000020CAEB124202EB23429BB243EA024335
:1031600081454CF8043B4FEA224ADBD255F80B303C
:103170002BB9019B043B9D421A462ED33C61384635
:1031800001F06FFA002824DB013628464FF0000CCE
:1031900058F8042BD0F800E093B2ACEB0303120C08
:1031A00013FA8EF3C2EB1E4202EB23429BB243EAB8
:1031B0000243C14540F8043B4FEA224CE8D255F89F
:1031C000242005EB840322B9043B9D421A460AD30E
:1031D0003C61304603B0BDE8F08F1268043B002A22
:1031E000CCD1013CC7E71268043B002AF0D1013C76
:1031F000EBE70020EEE700002DE9F04F2DED028B0C
:1032000057EC106B95B0456ADDF880800591CDE9EB
:103210000267044609920F933DB9102000F0EEFFBB
:10322000C0E9015560620560C560636A196851B103
:103230005A684A60012393408B60204601F01AF8D7
:10324000636A00221A603B1EB9BF23F00043039358
:103250000023C8F80030DDF80C90B74BBCBF01224A
:10326000C8F8002033EA09031BD10F9A42F20F730A
:103270001360C9F31303334300F07585219B63B9D1
:10328000AE4B25E0AE4B00930833219A13600098B3
:1032900015B0BDEC028BBDE8F08FA84B0093033353
:1032A000F3E79DED027B002251EC170B00238DED1F
:1032B0000A7BFDF711FC804660B10F9A0123136071
:1032C000219B002B00F04C859E4B219A1360013B03
:1032D0000093DCE79DED0A0B12AA13A9204601F02A
:1032E00052FAC9F30A558246002D7ED00B9BCDF8C9
:1032F0004080C3F31303DDE90A6743F07F5747F4C7
:103300004017A5F2FF35904B002230463946FCF7B6
:10331000C3FF83A3D3E90023FDF776F982A3D3E9A2
:103320000023FCF7BBFF064628460F46FDF702F9CF
:103330007FA3D3E90023FDF767F902460B46304629
:103340003946FCF7ABFF06460F46FDF70DFC0022A1
:103350008146002330463946FDF7C8FB48B1484650
:10336000FDF7E8F832463B46FDF7B6FB08B909F130
:10337000FF39B9F1160F56D8744B03EBC903D3E9E3
:103380000023DDE90A01FDF7B1FB00284DD009F16A
:10339000FF3900230E93129B5D1B6B1E049343BFEA
:1033A0000023C5F1010804934FF00008B9F1000FA4
:1033B0003DDB049BCDF834904B44049300230693EB
:1033C000059B092B00F29A80052BC4BF043B059393
:1033D000059BA3F10203CCBF00250125032B00F2BE
:1033E0009980DFE803F02C7D7B89DDE912531D44D1
:1033F00005F23243202BC1BFC3F1400305F2124056
:1034000009FA03F326FA00F0DABFC3F1200306FA43
:1034100003F01843FDF77EF801230646A1F1F87783
:10342000013D10936FE70123B4E70E90B3E7C9F1B4
:10343000000306930023A8EB09080D93C0E70023BF
:103440000893099B002B00F385804FF0010BCDF80A
:1034500004B05B46CDF824B0666A00227260042294
:1034600002F11400984271687AD9204600F0CEFE2D
:10347000636A30601B680093019B0E2B00F2F5809D
:10348000002D00F0F280B9F1000F7DDD2F4A09F028
:103490000F0302EBC30393ED007B19F4807F4FEA27
:1034A0002917B0EE478AF0EE678A5DD0284BDDE938
:1034B0000A01D3E90823FDF7D1F9CDE9020107F0AC
:1034C0000F070325224E002F50D1DDE9020153ECF6
:1034D000182BFDF7C3F9CDE902016FE00123AFE737
:1034E00000230893099B09EB030B0BF10103012B4C
:1034F0000193B8BF0123AFE70123F2E701250023C1
:10350000059308954FF0FF3B0022CDF804B012233D
:103510000992A1E701230893F4E700BFAFF300800D
:1035200061436F63A787D23FB3C8608B288AC63FC9
:10353000FB799F501344D33F0000F07FE94F000810
:10354000E04F0008BD4F00080000F83F7850000829
:1035500050500008DDF824B0CDF804B05B467BE79E
:103560000131716052007BE70225ABE7F90708D50E
:1035700051EC180BD6E90023FDF746F841EC180B87
:1035800001357F1008369EE700F0AB80C9F10006D8
:10359000AA4BAB4F06F00F0203EBC203D3E90023A3
:1035A000DDE90A01FDF730F8CDE90201361100230B
:1035B0000225002E40F08A80002B8CD10E9B002B20
:1035C00000F09180DDE902679E4B002230463946CB
:1035D000FDF78CFA002800F08680019B002B00F09C
:1035E0008280BBF1000F3CDD09F1FF33079300221D
:1035F000954B30463946FDF707F8CDE90201013514
:10360000CDF830B0DDE902672846FCF793FF32467B
:103610003B46FCF7F9FF8D4B0022FCF73FFEA1F182
:103620005073CDE9020103930C9B002B60D1884BB2
:10363000002230463946FCF72FFEDDE9022306461C
:103640000F46FDF771FA002840F09982DDE902216A
:10365000304601F100433946FDF748FA002840F0B2
:103660008B82DDE90A23CDE90223139B002BC0F2F4
:103670005B81B9F10E0F00F35781704B03EBC90367
:1036800093ED007B099BB0EE478AF0EE678A002B32
:1036900080F2E280019B002B00F3DE8040F06C8220
:1036A0006B4B51EC170B0022FCF7AEFFDDE9022358
:1036B000FDF730FA019E3746002840F04282009D17
:1036C000312305F8013B09F101093EE2F20705D576
:1036D000D7E90023FCF798FF01350123761008375E
:1036E00067E702256AE7019BCDF81C900C9389E7F8
:1036F00000990C980C9A514B9DED027B014402916C
:103700000899B0EE478AF0EE678A03EBC20353E9EB
:103710000223002945D04F490020FDF79FF853ECC4
:10372000182BFCF7B9FD009D41EC180B39463046CB
:10373000FDF71AFA0C90FCF7FDFE02460B463046E8
:103740003946FCF7A9FD0C9B303305F8013B53ECDF
:10375000182B06460F46FDF7C9F9002865D13246F9
:103760003B4638490020FCF797FD53EC182BFDF73A
:10377000BDF9002840F0B880029B9D423FF471AF34
:10378000314B51EC180B0022FCF73EFF2E4B41EC65
:10379000180B002230463946FCF736FF06460F4626
:1037A000C4E751EC170BFCF72FFF029B009D0C9315
:1037B00041EC180B39463046FDF7D6F91190FCF76D
:1037C000B9FE02460B4630463946FCF765FD119BB3
:1037D000303305F8013B029B9D4206460F464FF0F1
:1037E000000225D11B4B51EC180BFCF757FD02468C
:1037F0000B4630463946FDF797F9002874D153EC53
:10380000182B14490020FCF747FD02460B463046B2
:103810003946FDF76BF900283FF423AF0C9D6B1E72
:103820000C9315F8013C302BF8D0DDF81C9049E0E2
:10383000054BFCF7E9FE06460F46BBE7785000084B
:10384000505000080000F03F0000244000001C40E1
:10385000000014400000E03FDDE90267009D53ECEA
:10386000182B30463946FCF7F9FFFDF77DF9804605
:10387000FCF760FE53EC182BFCF7C6FE02460B4625
:103880003046394608F13006FCF706FD05F8016BB5
:10389000009E019FAE1BB74202460B4637D1FCF794
:1038A000FDFC53EC182B06460F46FDF73DF9C8B951
:1038B00053EC182B30463946FDF70EF910B118F0CD
:1038C000010F0FD12046514600F0D4FC00232B708D
:1038D0000F9B09F101001860219B002B3FF4D7AC2E
:1038E0001D60D4E4CDF81C902B461D4613F8012D25
:1038F000392A08D1009A9A42F7D1079A00990132E1
:10390000079230220A701A7801321A708DE79E4BA6
:103910000022FCF779FE0022002306460F46FDF741
:10392000DBF800289BD0CDE7089A002A00F0C6807B
:10393000059A012A00F3AA80109A002A00F0A280BA
:1039400003F23343069E4546049A01211A44204659
:103950009844049200F033FD0746002D0BDD049BD4
:10396000002B08DDAB42049AA8BF2B46A8EB030846
:10397000ED1AD31A0493069BFBB1089B002B00F0B1
:10398000A180002E11DD39463246204600F0BCFDF4
:10399000524601460746204600F01AFD5146079060
:1039A000204600F067FC079B9A46069B9A1B04D0B2
:1039B0005146204600F0A8FD82460121204600F035
:1039C000FEFC0D9B002B06467EDD1A460146204676
:1039D00000F09AFD059B012B064678DD0023069337
:1039E000336906EB8303186900F099FCC0F12000ED
:1039F000049B184410F01F0000F08880C0F12003E1
:103A0000042B40F38180C0F11C00049B03448044DC
:103A100005440493B8F1000F05DD514642462046A7
:103A200000F0C0FD8246049B002B05DD31461A469E
:103A3000204600F0B7FD06460E9B002B68D03146AD
:103A4000504600F00EFE002862DA002351460A229A
:103A5000204600F026FC089B09F1FF398246002B26
:103A600000F08881394600230A22204600F019FC24
:103A7000BBF1000F074600F38F80059B022B40F33C
:103A80008B804DE0129BC3F136035BE7019B5E1E0A
:103A9000069BB342BFBF069B0696F21A0D9BB6BFAC
:103AA0009B189E1B0D93019BB8BF0026002BB5BF32
:103AB000A8EB0305019B0023454645E7069E089FAA
:103AC00045464AE7069A73E7059B012B18DC029BE3
:103AD000B3B9039BC3F31303A3B9039B23F00043C0
:103AE0001B0D1B052BB1049B0133049308F1010846
:103AF000012306930D9B002B7FF472AF012077E723
:103B00000023F6E7029BF4E784D018461C307CE7DC
:103B1000019B002B3ADC059B022B37DDDDF804B05E
:103B2000BBF1000F0DD131465B460522204600F067
:103B3000B8FB01460646504600F093FD00283FF7CB
:103B4000BEAD099B009D6FEA03094FF000083146A6
:103B5000204600F08FFB002F3FF4B4AEB8F1000F09
:103B600005D0B84503D04146204600F083FB3946D6
:103B7000204600F07FFBA5E600263746E1E70C9ED5
:103B8000DDF81C9037469AE500002440089BDDF8DC
:103B900004B0002B00F0F580002D05DD39462A46E3
:103BA000204600F0FFFC0746069B002B55D07968A5
:103BB000204600F02BFB3A6902320546920007F1DD
:103BC0000C010C30FEF7BEFC01222946204600F015
:103BD000E9FC009B01330193009B5B440793029B2C
:103BE00003F00103B84606930746019B3146504651
:103BF00003F1FF3BFFF774FA03463033029041466E
:103C00005046089300F02DFD3A4604903146204678
:103C100000F043FDC268089B054602BB01465046C2
:103C200000F01FFD089B024629462046CDE90832D8
:103C300000F020FB059B099A019D43EA0201069BC7
:103C40000B43089B0DD1392B27D0049A002A01DDA4
:103C5000029B31338BF8003079E73846B9E701220F
:103C6000E2E70499002904DB059801430698014323
:103C700020D1002AEEDD514601222046019300F0BA
:103C800091FC3146824600F0ECFC0028019B02DCEE
:103C9000E0D1DA07DED5392BDAD139238BF80030C1
:103CA0002B461D46013B15F8012C392A50D0013214
:103CB0001A704CE7002A03DD392BEED00133C9E737
:103CC000019A079902F8013C8A422AD05146002302
:103CD0000A22204600F0E5FAB84582464FF000037C
:103CE0004FF00A024146204607D100F0DAFA80463A
:103CF0000746019B0133019377E700F0D2FA39467A
:103D0000804600230A22204600F0CBFA0746F0E75F
:103D1000BBF1000F009ACCBF5D46012515444FF062
:103D20000008514601222046019300F03BFC314639
:103D3000824600F096FC0028B2DC02D1019BDB0732
:103D4000AED42B461D4613F8012D302AFAD0FEE6DC
:103D5000009A9A42A5D1312309F101091370F6E6C0
:103D6000124BFFF7B5BA219B002B7FF48BAA104BA7
:103D7000FFF7AEBABBF1000F03DC059B022B3FF748
:103D8000CFAE009D31465046FFF7AAF900F130034F
:103D900005F8013B009AAA1A9345B9DD5146002364
:103DA0000A22204600F07DFA8246EBE7BC4F00086D
:103DB000E04F00088A892DE9F041054610070C46BE
:103DC00058D44B68002B05DC0B6C002B02DC002068
:103DD000BDE8F081E66A002EF9D0002312F480528B
:103DE0002F682B6032D0606DA3895A0705D56368B0
:103DF000C01A636B0BB1236CC01A00230246E66A3B
:103E0000216A2846B047431CA38906D129681D2989
:103E10002CD82A4ACA40D60728D500226260D90485
:103E20002269226004D5421C01D12B6803B9606568
:103E3000616B2F600029CAD004F14403994202D07B
:103E4000284600F0FFFC00206063C1E7216A0123DF
:103E50002846B047411CC7D12B68002BC4D01D2B6E
:103E600001D0162B01D12F60B1E7A38943F04003A5
:103E7000A381ADE70F69002FA9D093070E6808BF93
:103E80004B690F6018BF0023A6EB07088B60B8F1E1
:103E9000000F9CDD216AA66A43463A462846B04791
:103EA000002806DCA38943F04003A3814FF0FF30D4
:103EB0008EE70744A8EB0008E9E700BF01004020B7
:103EC00038B50B6905460C4613B90025284638BDA0
:103ED00018B183690BB900F087F8144B9C421BD1D1
:103EE0006C68B4F90C30002BEFD0626ED00704D4AC
:103EF000990502D4A06D00F01AF928462146FFF773
:103F000059FF636EDA070546E0D4A3899B05DDD42B
:103F1000A06D00F00DF9D9E7054B9C4201D1AC68CA
:103F2000DFE7044B9C4208BFEC68DAE7105000085A
:103F300030500008F04F0008002310B50446C0E9D7
:103F40000033C0E90433836081814366C2818361A9
:103F5000194608225C30FEF703FB054B6362054BF4
:103F6000A362054BE362054B2462236310BD00BFCF
:103F70006D4C00088F4C0008C74C0008EB4C000843
:103F8000014900F0AFB800BFC13E000870B54A1E3D
:103F9000682555430E4605F1740100F0A3FC044664
:103FA00040B10021C0E900160C30A06005F16802A4
:103FB000FEF7D6FA204670BD014800F0B8B800BF41
:103FC000F0020020014800F0B3B800BFF00200206A
:103FD000014800F0ACB800BFEB020020014800F03F
:103FE000A7B800BFEB02002010B50446FFF7F0FFB2
:103FF000A3691BB1BDE81040FFF7F0BFC4E912335D
:104000002365134B134A1B68A262A34204BF01231A
:10401000A361204600F020F86060204600F01CF804
:10402000A060204600F018F80022E06004216068DB
:10403000FFF782FFA06801220921FFF77DFFE068FA
:1040400002221221FFF778FF0123A361D2E700BF0C
:10405000A84F0008813F0008F8B50746FFF7ACFFFE
:104060001E4B1E68B36913B93046FFF7BDFF4836D3
:10407000D6E90134013B03D533680BB33668F7E763
:10408000B4F90C50D5B9164BE36004F158006566DD
:1040900000F04CF8FFF796FFC4E90155C4E9045558
:1040A0002560A5610822294604F15C00FEF758FA54
:1040B000C4E90D55C4E912552046F8BD6834D9E766
:1040C00004213846FFF762FF044630600028D5D14E
:1040D000FFF778FF0C233B60EEE700BFA84F000816
:1040E0000100FFFF2DE9F8430646884600F1480429
:1040F0000027D4E90195B9F1010905D52468002C00
:10410000F7D13846BDE8F883AB89012B07D9B5F95B
:104110000E30013303D029463046C0470743683587
:10412000E9E70000004870478001002070477047B1
:10413000704770B50E46B1F90E10002996B01446BE
:104140001D4607DA00232B60B3891A0610D44FF4FA
:1041500080630EE06A4600F0EFFD0028F2DB019A72
:1041600002F47042A2F500535A425A412A60EEE727
:1041700040230020236016B070BD00008B8973B50A
:104180009D0706460C4607D504F1470323602361CB
:104190000123636102B070BD01AB6A46FFF7C9FF3E
:1041A00000990546304600F09DFB48B9B4F90C3043
:1041B0009A05EFD423F0030343F00203A381E3E75E
:1041C0000D4BB362A389206043F08003A381009B61
:1041D0006361019B20615BB1B4F90E10304600F0C1
:1041E000BDFD28B1A38923F0030343F00103A3819C
:1041F000A0890543A581CDE7813F0008024B014618
:10420000186800F06FBB00BF2C00002070B5466A34
:1042100004460D463EB91020FFF7F0FFC0E90166E5
:1042200060620660C660666AF36883B1636ADB68D1
:1042300053F82500B8B9012101FA05F6721D920064
:10424000204600F0F0FA60B1C0E901560EE02122EC
:104250000421204600F0E7FA636AF060DB68002B77
:10426000E4D1002070BD026843F825200023C0E996
:104270000333F7E770B5466A05460C463EB9102091
:10428000FFF7BCFFC0E9016668620660C6603CB12A
:104290006B6A6268DB6853F82210216043F82240A1
:1042A00070BD2DE9F0410E69074698460C4601F1B4
:1042B000140000230568A9B202FB01814FEA114CEA
:1042C0002D0C02FB05C589B2013301EB05419E426D
:1042D00040F8041B4FEA1548ECDCB8F1000F1BD086
:1042E000A368B34212DC616838460131FFF78EFFE4
:1042F0002269023204F10C01054692000C30FEF7EF
:1043000021F921463846FFF7B5FF2C4604EB86031A
:104310000136C3F8148026612046BDE8F081030C05
:104320001B04D3B90004102310F07F4F04BF000218
:10433000083310F0704F04BF0001043310F0404FF9
:1043400004BF80000233002805DB10F0804F03F12A
:10435000010308BF2023184670470023E4E70368E1
:1043600013F0070201460BD0DA0724D4980749BF9F
:104370005B089B0801200B605CBF0B60022070474C
:1043800098B2B0B91B0C102013F0FF0F04BF1B0A2A
:1043900008301A0704BF1B0904309A0704BF9B08A2
:1043A0000230DA0703D45B0800F1010005D00B608E
:1043B00070471046E8E7002070472020704710B58E
:1043C0000C460121FFF722FF01224461026110BD6A
:1043D0002DE9F04F15460A692B699A42B8BF0B4682
:1043E0000C46BCBF2C461D462769D5F81090A36823
:1043F000616807EB0906B342B8BF013185B0FFF72A
:1044000005FF00F1140101EB86080B46002243452D
:104410001DD304F1140305F1140203EB870702EB2B
:10442000890302933B1B153B23F00303043304F180
:104430001505AF4238BF04230193029B03929342B8
:1044400008D8002E5ADC066105B0BDE8F08F43F8AD
:10445000042BDCE7B2F800A0BAF1000F24D004F17D
:10446000140E89464FF0000C5EF8045BD9F800B0DA
:10447000ABB21FFA8BFB0AFB03B34FEA154BD9F81B
:10448000005063444FEA154C0AFB0BC505EB13457E
:104490009BB243EA0543774549F8043B4FEA154C84
:1044A000E2D8019B41F803C0039BB3F802900432A9
:1044B000B9F1000F20D00B6804F1140C8E464FF0B8
:1044C000000ABCF80050BEF802B009FB05B5AA44CA
:1044D0009BB243EA0A434EF8043B5CF8043BBEF847
:1044E00000501B0C09FB035303EB1A4367454FEACB
:1044F000134AE6D8019D4B5104319EE758F8043D1C
:10450000002BA0D1013E9CE72DE9F843154612F09F
:10451000030206460F4607D0214C013A002354F807
:104520002220FFF7BEFE0746AD1035D0746A3CB9B5
:104530001020FFF763FEC0E9014470620460C460AC
:10454000D6F82480D8F808404CB940F271213046A2
:10455000FFF735FF0023C8F80800044603604FF05A
:104560000009EB070AD5394622463046FFF730FFEF
:10457000394680463046FFF77DFE47466D100BD02A
:10458000206838B9224621463046FFF721FF2060D7
:10459000C0F800900446E4E73846BDE8F88300BF61
:1045A000405100082DE9F0470C464968236903EBA8
:1045B0006218A368074691464FEA621A08F101069D
:1045C000B3423FDB3846FFF721FE0023054600F1EA
:1045D000140100F110021846534536DB20692AEA1F
:1045E000EA7A04F1140319F01F0901EB8A0103EBC5
:1045F000800C2ED0C9F1200E8A460022186800FADD
:1046000009F002434AF8042B53F8042B9C4522FA84
:104610000EF2F3D8ACEB0403153B23F00303043391
:1046200004F11500604588BF0423CA500AB108F19F
:104630000206013E38462E612146FFF71BFE284642
:10464000BDE8F08701315B00BAE742F8040F01339F
:10465000C2E7043953F8042B41F8042F9C45F9D8DC
:10466000E7E730B502690C69121B0ED100F11403A3
:10467000143103EB840001EB840150F8045D51F820
:10468000044DA54203D005D30122104630BD83421C
:10469000F3D3FAE74FF0FF32F7E72DE9F84F0C4676
:1046A0000646114620461746FFF7DBFF051E08D1D8
:1046B00029463046FFF7AAFD0123C0E90435BDE8CD
:1046C000F88FA4BF3B46274630467968A6BF1C46F4
:1046D00000250125FFF79AFD3E69C560256907F1B0
:1046E000140104F1140900F1140E07F1100201EB9A
:1046F000860C09EB8505F246002759F8043B52F871
:1047000004BF1FFA83F817FA8BF71B0CA7EB0808F6
:10471000C3EB1B4303EB28431FFA88F81F144D45D6
:1047200048EA03434AF8043BE7D82B1B153B23F028
:10473000030304331534A54238BF042319447344DA
:104740009E460D4665450ED30CF10302521A22F027
:10475000030203398C4538BF00221A4452F8043D45
:104760007BB10661ABE755F8048B17FA88F4221485
:1047700002EB1842A4B244EA02444EF8044B171468
:10478000E0E7013EEAE72DE9F7438946012157ECCE
:10479000106B9046FFF73AFDC7F30A550446C7F37E
:1047A000130335BB002E019328D068460096FFF70F
:1047B000D6FD009900B3019AC0F1200302FA03F379
:1047C0000B43C24063610192019BA361002B14BFA4
:1047D000022201222261D5B1A5F233450544C9F870
:1047E0000050C0F13500C8F80000204603B0BDE815
:1047F000F08343F48013D5E76161E5E701A8FFF793
:10480000AEFD019B6361012222612030E3E704EBEE
:104810008203A0F23240C9F800001869FFF77FFD5B
:10482000C0EB4210DFE713B54A431146019200F096
:1048300059F8044618B1019A0021FDF791FE20466F
:1048400002B010BD37B5002948D051F8043C0190A2
:10485000002BA1F10404B8BFE41800F0B3FA204A19
:1048600001981368154633B96360146003B0BDE85E
:10487000304000F0ADBAA3420BD9216862189342D0
:1048800004BF1A685B68636004BF521822602C6022
:10489000ECE71A465B680BB1A342FAD911685518C8
:1048A000A5420BD1246821445418A3421160DDD1E4
:1048B0001C685B68536021441160D7E702D90C2360
:1048C0000360D3E7256861198B4204BF19685B68F0
:1048D000636004BF491921605460C7E703B030BD6D
:1048E00018020020F8B5CD1C25F0030508350C2D65
:1048F00038BF0C25002D064601DBA94203D90C2345
:1049000033600020F8BD00F05DFA21490A681446C2
:104910009CB9204F3B6823B92146304600F096F9F8
:1049200038602946304600F091F9431C23D10C230E
:104930003360304600F04CFAE3E723685B1B17D482
:104940000B2B03D923601C44256004E06368A2425A
:104950000CBF0B605360304600F03AFA04F10B00D4
:10496000231D20F00700C21ACCD01B1AA350C9E7A0
:1049700022466468CCE7C41C24F00304A042E3D0C0
:10498000211A304600F062F90130DDD1CFE700BFD7
:10499000180200201C0200209368013B002B10B479
:1049A000936008DA9469A34201DB0A2903D15DF818
:1049B000044BFEF7D5BA1368581C106019700846EE
:1049C0005DF8044B7047F8B506460F461446D518F7
:1049D000AC4201D1002007E014F8011B3A463046F2
:1049E000FFF7DAFF431CF3D1F8BD00002DE9F04FCB
:1049F0000D469DB014469846064618B183690BB91A
:104A0000FFF7F2FA894B9D421BD175686B6ED9078F
:104A100005D4AB899A0502D4A86DFFF788FBAB8952
:104A20001B0701D52B69EBB929463046FEF7EAFA98
:104A3000C0B16B6EDC070ED54FF0FF301DB0BDE886
:104A4000F08F7B4B9D4201D1B568DFE7794B9D42EA
:104A500008BFF568DAE7AB899805EDD4A86DFFF7D4
:104A600067FBE9E70023099320238DF82930CDF86F
:104A70000C803023DFF8C0818DF82A304FF0010917
:104A800023469A4613F8012B0AB1252AF9D1BAEB2D
:104A9000040B0BD05B46224629463046FFF793FFB6
:104AA000013000F0AA80099A5A4409929AF800301D
:104AB000002B00F0A28000234FF0FF32CDE9052348
:104AC0000AF1010A049307938DF853301A93544660
:104AD000052214F8011B5848FBF78AFB049AD8B941
:104AE000D10644BF20238DF85330130744BF2B2336
:104AF0008DF853309AF800302A2B15D0079A544677
:104B000000204FF00A0C214611F8013B303B092BE5
:104B10004ED9B0B1079214E0A0EB080309FA03F3F1
:104B200013430493A246D2E7039B191D1B6803910C
:104B3000002BBBBF5B4242F0020207930793B8BF52
:104B4000049223782E2B0CD163782A2B35D1039B2A
:104B50001A1D1B680392002BB8BF4FF0FF330234BD
:104B60000593DFF8E4A0217803225046FBF740FBD1
:104B700040B14023A0EB0A0003FA00F0049B03437A
:104B80000134049314F8011B2C488DF828100622D8
:104B9000FBF72EFB00283FD0294B1BBB039B0733A1
:104BA00023F0070308330393099B3B44099367E70A
:104BB0000CFB02320C460120A5E7002301340593CB
:104BC00019464FF00A0C204610F8012B303A092AFA
:104BD00003D9002BC5D00591C3E70CFB0121044686
:104BE0000123F0E703AB00932A46164B04A9304695
:104BF000FDF75EFD0746781CD6D16B6ED90705D44C
:104C0000AB899A0502D4A86DFFF792FAAB895B06CF
:104C10003FF512AF099811E703AB00932A46094B01
:104C200004A93046FDF7E8FFE4E700BF1050000894
:104C300030500008F04F00084C5100085651000851
:104C4000B1260008C74900085251000838B5064D82
:104C50000023044608462B6000F008F9431C02D1EB
:104C60002B6803B1236038BDF402002010B50C4658
:104C7000B1F90E1000F0B2F80028ABBF636DA38944
:104C80001B1823F48053ACBF6365A38110BD2DE9CD
:104C9000F0411F468B89DB0505460C46164605D5B7
:104CA000B1F90E100223002200F068F8A389B4F9CC
:104CB0000E1023F48053A38132463B462846BDE8BC
:104CC000F04100F017B810B50C46B1F90E1000F025
:104CD00055F8431CA38915BF606523F4805343F442
:104CE0008053A38118BFA38110BDB1F90E1000F04D
:104CF00013B8000038B5074D044608461146002297
:104D00002A601A46FCF774FA431C02D12B6803B1DF
:104D1000236038BDF402002038B5064D0023044658
:104D200008462B6000F07AF8431C02D12B6803B1CF
:104D3000236038BDF402002038B5074D0023044637
:104D4000084611462B6000F071F8431C02D12B6815
:104D500003B1236038BD00BFF402002038B5064D12
:104D60000023044608462B6000F068F8431C02D17B
:104D70002B6803B1236038BDF402002038B5074D1D
:104D800004460846114600222A601A4600F05EF8E2
:104D9000431C02D12B6803B1236038BDF40200200C
:104DA00082B001B901A942B14BB113780B601278FE
:104DB000101E18BF012002B070471046FBE76FF0CD
:104DC0000100F8E70148FFF7B2B900BFEC0200208C
:104DD0000148FFF7ADB900BFEC02002038B5074D20
:104DE00004460846114600222A601A4600F036F8AA
:104DF000431C02D12B6803B1236038BDF4020020AC
:104E000049B1FF2A85BF8A2303600A704FF0FF3043
:104E100098BF01207047084670470000024B582297
:104E20001A604FF0FF307047F4020020024B582206
:104E30001A604FF0FF307047F4020020024B5822F6
:104E40001A600020704700BFF4020020024B582275
:104E50001A604FF0FF307047F4020020024B5822D6
:104E60001A604FF0FF307047F4020020044A0549F1
:104E70001368002B08BF0B46184410601846704793
:104E800020020020F8020020F8B500BFF8BC08BCE2
:104E90009E467047F8B500BFF8BC08BC9E467047F8
:104EA00043616E206E6F742066696E64204E5246B8
:104EB00032344C30312E0D004E524632344C3031AB
:104EC00020636F6E6E6563742073756365737366BC
:104ED000756C6C792E0D0000545820537563636512
:104EE00073732E0D0000000052585F41434B5F4F1B
:104EF0004B2C61636B5F6275663A25732E0D0A0059
:104F00005458204661696C210D000000000000002B
:104F10000000000001020304060708090000000069
:104F200001020304A5A5A5A5A50000004E52463226
:104F3000344C3031204D41585F54580D0000000072
:104F40004E524632344C30312052585F4F4B3A2546
:104F5000640D0A004E524632344C30312054585FB2
:104F60004F4B0D004E524632344C30312052585F78
:104F70004F4B0D004E524632344C30312046616961
:104F80006C2062656361757365206F74686572205B
:104F9000726561736F6E0D00B04310100100000068
:104FA000B04310100100000030000020494E4600C0
:104FB000696E66004E414E006E616E003000303109
:104FC0003233343536373839414243444546003070
:104FD000313233343536373839616263646566009F
:104FE000496E66696E697479004E614E000000007A
:104FF00000000000000000000000000000000000B1
:1050000000000000000000000000000000000000A0
:105010000000000000000000000000000000000090
:105020000000000000000000000000000000000080
:105030000000000000000000000000000000000070
:105040000000000000000000000000000000000060
:105050000080E03779C34143176E05B5B5B8934674
:10506000F5F93FE9034F384D321D30F94877825A40
:105070003CBF737FDD4F1575000000000000F03F5E
:105080000000000000002440000000000000594023
:105090000000000000408F40000000000088C34076
:1050A00000000000006AF8400000000080842E41EB
:1050B00000000000D01263410000000084D7974137
:1050C0000000000065CDCD41000000205FA002423D
:1050D000000000E876483742000000A2941A6D42B2
:1050E000000040E59C30A2420000901EC4BCD642A5
:1050F00000003426F56B0C430080E03779C3414350
:1051000000A0D8855734764300C84E676DC1AB43C5
:10511000003D9160E458E143408CB5781DAF1544E3
:1051200050EFE2D6E41A4B4492D54D06CFF08044BE
:10513000F64AE1C7022DB544B49DD9794378EA44D3
:1051400005000000190000007D000000232D302B19
:105150002000686C4C006566674546470043005078
:105160004F534958002E00002020202020202020CE
:105170002028282828282020202020202020202007
:105180002020202020202020881010101010101027
:10519000101010101010101004040404040404046F
:1051A0000404101010101010104141414141410100
:1051B00001010101010101010101010101010101DF
:1051C00001010110101010101042424242424202EE
:1051D00002020202020202020202020202020202AF
:1051E0000202021010101020000000000000000059
:1051F00000000000000000000000000000000000AF
:10520000000000000000000000000000000000009E
:10521000000000000000000000000000000000008E
:10522000000000000000000000000000000000007E
:10523000000000000000000000000000000000006E
:10524000000000000000000000000000000000005E
:10525000000000000000000000000000000000004E
:08526000000000000000000046
:0852680080B9FF7F0100000086
:04527000C50100086C
:04527400A10100088C
:105278000B0000000000000000000000000000001B
:105288000000000000000000000000000000000016
:1052980001000000100000000024F400300000208D
:1052A800000000001050000830500008F04F0008BF
:1052B80000000000000000000000000000000000E6
:1052C80000000000000000000000000000000000D6
:1052D80000000000000000000000000000000000C6
:1052E80000000000000000000000000000000000B6
:1052F80000000000000000000000000000000000A6
:105308004300000000000000000000000000000052
:105318000000000000000000000000000000000085
:105328004300000000000000000000000000000032
:105338000000000000000000000000000000000065
:105348004300000000000000000000000000000012
:105358000000000000000000000000000000000045
:1053680043000000000000000000000000000000F2
:105378000000000000000000000000000000000025
:1053880043000000000000000000000000000000D2
:105398000000000000000000000000000000000005
:1053A80043000000000000000000000000000000B2
:1053B80000000000000000000000000000000000E5
:1053C8004300000000000000000000000000000092
:1053D80000000000000000000000000000000000C5
:1053E800014E0008A14D00080000000067510008A8
:1053F80065510008515100085151000851510008E9
:1054080051510008515100085151000851510008EC
:105418005151000851510008FFFFFFFFFFFFFFFF38
:10542800FFFFFFFFFFFF0000010041534349490010
:105438000000000000000000000000000000000064
:1054480000000000000000000000415343494900EB
:105458000000000000000000000000000000000044
:0C54680000000000000000000000000038
:04000005080024A922
:00000001FF
